{"contracts/UniversalAdapter.sol":{"UniversalAdapter":{"abi":[{"anonymous":false,"inputs":[{"indexed":true,"internalType":"address","name":"sender","type":"address"},{"indexed":false,"internalType":"string","name":"key","type":"string"},{"indexed":false,"internalType":"bytes","name":"value","type":"bytes"}],"name":"DataStored","type":"event"},{"inputs":[{"internalType":"string","name":"key","type":"string"}],"name":"getData","outputs":[{"internalType":"bytes","name":"","type":"bytes"}],"stateMutability":"view","type":"function"},{"inputs":[],"name":"isAvailable","outputs":[{"internalType":"bool","name":"","type":"bool"}],"stateMutability":"pure","type":"function"},{"inputs":[{"internalType":"string","name":"key","type":"string"},{"internalType":"bytes","name":"value","type":"bytes"}],"name":"setData","outputs":[],"stateMutability":"nonpayable","type":"function"}],"evm":{"bytecode":{"linkReferences":{},"object":"6080806040523461001657610468908161001b8239f35b5f80fdfe6080604081815260049182361015610015575f80fd5b5f3560e01c9081636c67bdfa146101a257508063856c71dd146101875763ae55c88814610040575f80fd5b3461018357602091826003193601126101835780359067ffffffffffffffff8211610183576100719136910161039f565b61009284845183819483830196873781015f838201520380845201826103cd565b5190205f525f8252805f2082825180925f9080546100af81610403565b808552916001918083169081156101605750600114610122575b5050506100db925094929403846103cd565b815192818492835281519182828501525f5b83811061010c5750505f83830185015250601f01601f19168101030190f35b81810183015187820187015286945082016100ed565b5f90815285812095935091905b8183106101485750879450508201016100db5f806100c9565b8554878401850152948501948694509183019161012f565b925050506100db94925060ff191682840152151560051b82010185925f806100c9565b5f80fd5b5034610183575f366003190112610183576020905160018152f35b83833461018357806003193601126101835767ffffffffffffffff908235828111610183576101d4903690850161039f565b9290602435828111610183576101ed903690870161039f565b92909560209788810190878583376102138a828a81015f838201520380845201826103cd565b5190205f525f8852845f2091841161038c57506102308154610403565b601f8111610349575b505f601f84116001146102bd577ff63f64b35cf7063a692d2f089698eda74616257a8ad9e106839e165690b1578296979284926102ad9561029e935f916102b2575b508460011b905f198660031b1c19161790555b855196868897885287019161043b565b9184830390850152339661043b565b0390a2005b90508a01358b61027b565b601f19841690825f52885f20915f5b81811061033257509261029e927ff63f64b35cf7063a692d2f089698eda74616257a8ad9e106839e165690b15782999a9592876102ad989610610319575b5050600184811b01905561028e565b8b01355f19600387901b60f8161c191690558a8061030a565b91928a60018192868d0135815501940192016102cc565b815f52875f20601f850160051c810191898610610382575b601f0160051c01905b8181106103775750610239565b5f815560010161036a565b9091508190610361565b604190634e487b7160e01b5f525260245ffd5b9181601f840112156101835782359167ffffffffffffffff8311610183576020838186019501011161018357565b90601f8019910116810190811067ffffffffffffffff8211176103ef57604052565b634e487b7160e01b5f52604160045260245ffd5b90600182811c92168015610431575b602083101461041d57565b634e487b7160e01b5f52602260045260245ffd5b91607f1691610412565b908060209392818452848401375f828201840152601f01601f191601019056fea164736f6c6343000818000a","opcodes":"PUSH1 0x80 DUP1 PUSH1 0x40 MSTORE CALLVALUE PUSH2 0x16 JUMPI PUSH2 0x468 SWAP1 DUP2 PUSH2 0x1B DUP3 CODECOPY RETURN JUMPDEST PUSH0 DUP1 REVERT INVALID PUSH1 0x80 PUSH1 0x40 DUP2 DUP2 MSTORE PUSH1 0x4 SWAP2 DUP3 CALLDATASIZE LT ISZERO PUSH2 0x15 JUMPI PUSH0 DUP1 REVERT JUMPDEST PUSH0 CALLDATALOAD PUSH1 0xE0 SHR SWAP1 DUP2 PUSH4 0x6C67BDFA EQ PUSH2 0x1A2 JUMPI POP DUP1 PUSH4 0x856C71DD EQ PUSH2 0x187 JUMPI PUSH4 0xAE55C888 EQ PUSH2 0x40 JUMPI PUSH0 DUP1 REVERT JUMPDEST CALLVALUE PUSH2 0x183 JUMPI PUSH1 0x20 SWAP2 DUP3 PUSH1 0x3 NOT CALLDATASIZE ADD SLT PUSH2 0x183 JUMPI DUP1 CALLDATALOAD SWAP1 PUSH8 0xFFFFFFFFFFFFFFFF DUP3 GT PUSH2 0x183 JUMPI PUSH2 0x71 SWAP2 CALLDATASIZE SWAP2 ADD PUSH2 0x39F JUMP JUMPDEST PUSH2 0x92 DUP5 DUP5 MLOAD DUP4 DUP2 SWAP5 DUP4 DUP4 ADD SWAP7 DUP8 CALLDATACOPY DUP2 ADD PUSH0 DUP4 DUP3 ADD MSTORE SUB DUP1 DUP5 MSTORE ADD DUP3 PUSH2 0x3CD JUMP JUMPDEST MLOAD SWAP1 KECCAK256 PUSH0 MSTORE PUSH0 DUP3 MSTORE DUP1 PUSH0 KECCAK256 DUP3 DUP3 MLOAD DUP1 SWAP3 PUSH0 SWAP1 DUP1 SLOAD PUSH2 0xAF DUP2 PUSH2 0x403 JUMP JUMPDEST DUP1 DUP6 MSTORE SWAP2 PUSH1 0x1 SWAP2 DUP1 DUP4 AND SWAP1 DUP2 ISZERO PUSH2 0x160 JUMPI POP PUSH1 0x1 EQ PUSH2 0x122 JUMPI JUMPDEST POP POP POP PUSH2 0xDB SWAP3 POP SWAP5 SWAP3 SWAP5 SUB DUP5 PUSH2 0x3CD JUMP JUMPDEST DUP2 MLOAD SWAP3 DUP2 DUP5 SWAP3 DUP4 MSTORE DUP2 MLOAD SWAP2 DUP3 DUP3 DUP6 ADD MSTORE PUSH0 JUMPDEST DUP4 DUP2 LT PUSH2 0x10C JUMPI POP POP PUSH0 DUP4 DUP4 ADD DUP6 ADD MSTORE POP PUSH1 0x1F ADD PUSH1 0x1F NOT AND DUP2 ADD SUB ADD SWAP1 RETURN JUMPDEST DUP2 DUP2 ADD DUP4 ADD MLOAD DUP8 DUP3 ADD DUP8 ADD MSTORE DUP7 SWAP5 POP DUP3 ADD PUSH2 0xED JUMP JUMPDEST PUSH0 SWAP1 DUP2 MSTORE DUP6 DUP2 KECCAK256 SWAP6 SWAP4 POP SWAP2 SWAP1 JUMPDEST DUP2 DUP4 LT PUSH2 0x148 JUMPI POP DUP8 SWAP5 POP POP DUP3 ADD ADD PUSH2 0xDB PUSH0 DUP1 PUSH2 0xC9 JUMP JUMPDEST DUP6 SLOAD DUP8 DUP5 ADD DUP6 ADD MSTORE SWAP5 DUP6 ADD SWAP5 DUP7 SWAP5 POP SWAP2 DUP4 ADD SWAP2 PUSH2 0x12F JUMP JUMPDEST SWAP3 POP POP POP PUSH2 0xDB SWAP5 SWAP3 POP PUSH1 0xFF NOT AND DUP3 DUP5 ADD MSTORE ISZERO ISZERO PUSH1 0x5 SHL DUP3 ADD ADD DUP6 SWAP3 PUSH0 DUP1 PUSH2 0xC9 JUMP JUMPDEST PUSH0 DUP1 REVERT JUMPDEST POP CALLVALUE PUSH2 0x183 JUMPI PUSH0 CALLDATASIZE PUSH1 0x3 NOT ADD SLT PUSH2 0x183 JUMPI PUSH1 0x20 SWAP1 MLOAD PUSH1 0x1 DUP2 MSTORE RETURN JUMPDEST DUP4 DUP4 CALLVALUE PUSH2 0x183 JUMPI DUP1 PUSH1 0x3 NOT CALLDATASIZE ADD SLT PUSH2 0x183 JUMPI PUSH8 0xFFFFFFFFFFFFFFFF SWAP1 DUP3 CALLDATALOAD DUP3 DUP2 GT PUSH2 0x183 JUMPI PUSH2 0x1D4 SWAP1 CALLDATASIZE SWAP1 DUP6 ADD PUSH2 0x39F JUMP JUMPDEST SWAP3 SWAP1 PUSH1 0x24 CALLDATALOAD DUP3 DUP2 GT PUSH2 0x183 JUMPI PUSH2 0x1ED SWAP1 CALLDATASIZE SWAP1 DUP8 ADD PUSH2 0x39F JUMP JUMPDEST SWAP3 SWAP1 SWAP6 PUSH1 0x20 SWAP8 DUP9 DUP2 ADD SWAP1 DUP8 DUP6 DUP4 CALLDATACOPY PUSH2 0x213 DUP11 DUP3 DUP11 DUP2 ADD PUSH0 DUP4 DUP3 ADD MSTORE SUB DUP1 DUP5 MSTORE ADD DUP3 PUSH2 0x3CD JUMP JUMPDEST MLOAD SWAP1 KECCAK256 PUSH0 MSTORE PUSH0 DUP9 MSTORE DUP5 PUSH0 KECCAK256 SWAP2 DUP5 GT PUSH2 0x38C JUMPI POP PUSH2 0x230 DUP2 SLOAD PUSH2 0x403 JUMP JUMPDEST PUSH1 0x1F DUP2 GT PUSH2 0x349 JUMPI JUMPDEST POP PUSH0 PUSH1 0x1F DUP5 GT PUSH1 0x1 EQ PUSH2 0x2BD JUMPI PUSH32 0xF63F64B35CF7063A692D2F089698EDA74616257A8AD9E106839E165690B15782 SWAP7 SWAP8 SWAP3 DUP5 SWAP3 PUSH2 0x2AD SWAP6 PUSH2 0x29E SWAP4 PUSH0 SWAP2 PUSH2 0x2B2 JUMPI JUMPDEST POP DUP5 PUSH1 0x1 SHL SWAP1 PUSH0 NOT DUP7 PUSH1 0x3 SHL SHR NOT AND OR SWAP1 SSTORE JUMPDEST DUP6 MLOAD SWAP7 DUP7 DUP9 SWAP8 DUP9 MSTORE DUP8 ADD SWAP2 PUSH2 0x43B JUMP JUMPDEST SWAP2 DUP5 DUP4 SUB SWAP1 DUP6 ADD MSTORE CALLER SWAP7 PUSH2 0x43B JUMP JUMPDEST SUB SWAP1 LOG2 STOP JUMPDEST SWAP1 POP DUP11 ADD CALLDATALOAD DUP12 PUSH2 0x27B JUMP JUMPDEST PUSH1 0x1F NOT DUP5 AND SWAP1 DUP3 PUSH0 MSTORE DUP9 PUSH0 KECCAK256 SWAP2 PUSH0 JUMPDEST DUP2 DUP2 LT PUSH2 0x332 JUMPI POP SWAP3 PUSH2 0x29E SWAP3 PUSH32 0xF63F64B35CF7063A692D2F089698EDA74616257A8AD9E106839E165690B15782 SWAP10 SWAP11 SWAP6 SWAP3 DUP8 PUSH2 0x2AD SWAP9 SWAP7 LT PUSH2 0x319 JUMPI JUMPDEST POP POP PUSH1 0x1 DUP5 DUP2 SHL ADD SWAP1 SSTORE PUSH2 0x28E JUMP JUMPDEST DUP12 ADD CALLDATALOAD PUSH0 NOT PUSH1 0x3 DUP8 SWAP1 SHL PUSH1 0xF8 AND SHR NOT AND SWAP1 SSTORE DUP11 DUP1 PUSH2 0x30A JUMP JUMPDEST SWAP2 SWAP3 DUP11 PUSH1 0x1 DUP2 SWAP3 DUP7 DUP14 ADD CALLDATALOAD DUP2 SSTORE ADD SWAP5 ADD SWAP3 ADD PUSH2 0x2CC JUMP JUMPDEST DUP2 PUSH0 MSTORE DUP8 PUSH0 KECCAK256 PUSH1 0x1F DUP6 ADD PUSH1 0x5 SHR DUP2 ADD SWAP2 DUP10 DUP7 LT PUSH2 0x382 JUMPI JUMPDEST PUSH1 0x1F ADD PUSH1 0x5 SHR ADD SWAP1 JUMPDEST DUP2 DUP2 LT PUSH2 0x377 JUMPI POP PUSH2 0x239 JUMP JUMPDEST PUSH0 DUP2 SSTORE PUSH1 0x1 ADD PUSH2 0x36A JUMP JUMPDEST SWAP1 SWAP2 POP DUP2 SWAP1 PUSH2 0x361 JUMP JUMPDEST PUSH1 0x41 SWAP1 PUSH4 0x4E487B71 PUSH1 0xE0 SHL PUSH0 MSTORE MSTORE PUSH1 0x24 PUSH0 REVERT JUMPDEST SWAP2 DUP2 PUSH1 0x1F DUP5 ADD SLT ISZERO PUSH2 0x183 JUMPI DUP3 CALLDATALOAD SWAP2 PUSH8 0xFFFFFFFFFFFFFFFF DUP4 GT PUSH2 0x183 JUMPI PUSH1 0x20 DUP4 DUP2 DUP7 ADD SWAP6 ADD ADD GT PUSH2 0x183 JUMPI JUMP JUMPDEST SWAP1 PUSH1 0x1F DUP1 NOT SWAP2 ADD AND DUP2 ADD SWAP1 DUP2 LT PUSH8 0xFFFFFFFFFFFFFFFF DUP3 GT OR PUSH2 0x3EF JUMPI PUSH1 0x40 MSTORE JUMP JUMPDEST PUSH4 0x4E487B71 PUSH1 0xE0 SHL PUSH0 MSTORE PUSH1 0x41 PUSH1 0x4 MSTORE PUSH1 0x24 PUSH0 REVERT JUMPDEST SWAP1 PUSH1 0x1 DUP3 DUP2 SHR SWAP3 AND DUP1 ISZERO PUSH2 0x431 JUMPI JUMPDEST PUSH1 0x20 DUP4 LT EQ PUSH2 0x41D JUMPI JUMP JUMPDEST PUSH4 0x4E487B71 PUSH1 0xE0 SHL PUSH0 MSTORE PUSH1 0x22 PUSH1 0x4 MSTORE PUSH1 0x24 PUSH0 REVERT JUMPDEST SWAP2 PUSH1 0x7F AND SWAP2 PUSH2 0x412 JUMP JUMPDEST SWAP1 DUP1 PUSH1 0x20 SWAP4 SWAP3 DUP2 DUP5 MSTORE DUP5 DUP5 ADD CALLDATACOPY PUSH0 DUP3 DUP3 ADD DUP5 ADD MSTORE PUSH1 0x1F ADD PUSH1 0x1F NOT AND ADD ADD SWAP1 JUMP INVALID LOG1 PUSH5 0x736F6C6343 STOP ADDMOD XOR STOP EXP "},"methodIdentifiers":{"getData(string)":"ae55c888","isAvailable()":"856c71dd","setData(string,bytes)":"6c67bdfa"}}}}}