{
  "_format": "hh-sol-artifact-1",
  "contractName": "EthereumConfig",
  "sourceName": "@fhevm/solidity/config/ZamaConfig.sol",
  "abi": [
    {
      "inputs": [],
      "stateMutability": "nonpayable",
      "type": "constructor"
    },
    {
      "inputs": [],
      "name": "protocolId",
      "outputs": [
        {
          "internalType": "uint256",
          "name": "",
          "type": "uint256"
        }
      ],
      "stateMutability": "pure",
      "type": "function"
    }
  ],
  "bytecode": "0x6080604052346100f3575f60606100146100f7565b82815282602082015282604082015201525f60606100306100f7565b828152826020820152826040820152015260018060a01b03197f9e7b61f58c47dc699ac88507c4f5bb9f121c03808c5676a8078fe583e46497008181541690557f9e7b61f58c47dc699ac88507c4f5bb9f121c03808c5676a8078fe583e46497018181541690557f9e7b61f58c47dc699ac88507c4f5bb9f121c03808c5676a8078fe583e46497028181541690557f9e7b61f58c47dc699ac88507c4f5bb9f121c03808c5676a8078fe583e4649703908154169055604051604b908161012b8239f35b5f80fd5b60405190608082016001600160401b0381118382101761011657604052565b634e487b7160e01b5f52604160045260245ffdfe60808060405260043610156011575f80fd5b5f3560e01c63da1f12ab146023575f80fd5b34603a575f366003190112603a5780600160209252f35b5f80fdfea164736f6c6343000818000a",
  "deployedBytecode": "0x60808060405260043610156011575f80fd5b5f3560e01c63da1f12ab146023575f80fd5b34603a575f366003190112603a5780600160209252f35b5f80fdfea164736f6c6343000818000a",
  "linkReferences": {},
  "deployedLinkReferences": {}
}